:020000040000FA
:100000000C945C000C9479000C9479000C947900A9
:100010000C9479000C9479000C9479000C9479007C
:100020000C9479000C9479000C9479000C9479006C
:100030000C9479000C9471010C9479000C94790063
:100040000C9427010C9479000C9479000C9479009D
:100050000C9479000C9479000C9479000C9479003C
:100060000C9479000C947900000000080002010053
:100070000003040700000000000000000000000072
:10008000250028002B0000000000240027002A0083
:10009000040404040404040402020202020203032E
:1000A0000303030301020408102040800102040836
:1000B000102001020408102011241FBECFEFD8E049
:1000C000DEBFCDBF11E0A0E0B1E0EAE0F4E002C0A5
:1000D00005900D92A230B107D9F721E0A2E0B1E07E
:1000E00001C01D92AC30B207E1F70E9498010C9458
:1000F00003020C94000008954AEA50E0FA0164916A
:1001000086E990E0FC012491222399F030E0220F4F
:10011000331FF901EA57FF4FA591B491F901E45853
:10012000FF4F259134912FB7F8943C91632B6C933A
:100130002FBFEEE6F0E02491233009F448C048F5E3
:10014000213009F438C0223009F43BC02491FA016F
:100150004491FC0194919923D9F0222359F0233042
:1001600009F45EC008F051C0213009F45FC02230AC
:1001700009F460C0E92FF0E0EE0FFF1FE458FF4FD5
:10018000A591B4918FB7F8949C91492B4C938FBF54
:100190000895273041F1283079F12430B9F6809163
:1001A000800080628093800089EA95E590938B00BF
:1001B00080938A00089584B5806884BD89EA87BDEC
:1001C000089584B5806284BD89EA88BD08958091D0
:1001D000800080688093800089EA95E5909389008B
:1001E0008093880008958091B00080688093B0006B
:1001F00089EA8093B30008958091B0008062809373
:10020000B00089EA8093B40008952730B1F0283017
:10021000D1F0243009F0AECF809180008F7D03C0F3
:10022000809180008F7780938000A4CF84B58F77F2
:1002300084BDA0CF84B58F7DFBCF8091B0008F7738
:100240008093B00097CF8091B0008F7DF9CF1F923F
:100250000F920FB60F9211242F933F938F939F937A
:10026000AF93BF938091080190910901A0910A0179
:10027000B0910B013091070123E0230F2D3758F582
:100280000196A11DB11D2093070180930801909351
:100290000901A0930A01B0930B0180910301909191
:1002A0000401A0910501B09106010196A11DB11DA7
:1002B0008093030190930401A0930501B09306017C
:1002C000BF91AF919F918F913F912F910F900FBE52
:1002D0000F901F90189526E8230F0296A11DB11DBF
:1002E000D2CF1F920F920FB60F9211242F933F93EC
:1002F0004F935F936F937F938F939F93AF93BF932E
:10030000EF93FF93E0910001F09101010995FF91B6
:10031000EF91BF91AF919F918F917F916F915F917D
:100320004F913F912F910F900FBE0F901F901895F6
:10033000789484B5826084BD84B5816084BD85B5C0
:10034000826085BD85B5816085BD80916E008160CC
:1003500080936E0010928100809181008260809372
:100360008100809181008160809381008091800074
:100370008160809380008091B10084608093B1009F
:100380008091B00081608093B00080917A00846099
:1003900080937A0080917A00826080937A008091C5
:1003A0007A00816080937A0080917A0080688093DF
:1003B0007A001092C10080E48AB980E180938100C4
:1003C0001092800085E08093020182E19AE7909389
:1003D00087008093860085E1809381008CE790E020
:1003E000909301018093000181E080936F008091E0
:1003F0000201806180938100C0E0D0E02097F1F39A
:0C0400000E940000FBCFF894FFCF7B00AF
:107E0000112484B714BE81FFF0D085E080938100F7
:107E100082E08093C00088E18093C10086E0809377
:107E2000C20080E18093C4008EE0C9D0259A86E02C
:107E300020E33CEF91E0309385002093840096BBD3
:107E4000B09BFECF1D9AA8958150A9F7CC24DD24C4
:107E500088248394B5E0AB2EA1E19A2EF3E0BF2EE7
:107E6000A2D0813461F49FD0082FAFD0023811F036
:107E7000013811F484E001C083E08DD089C08234E0
:107E800011F484E103C0853419F485E0A6D080C0E4
:107E9000853579F488D0E82EFF2485D0082F10E0AE
:107EA000102F00270E291F29000F111F8ED06801E7
:107EB0006FC0863521F484E090D080E0DECF843638
:107EC00009F040C070D06FD0082F6DD080E0C81688
:107ED00080E7D80618F4F601B7BEE895C0E0D1E017
:107EE00062D089930C17E1F7F0E0CF16F0E7DF06D8
:107EF00018F0F601B7BEE89568D007B600FCFDCFD4
:107F0000A601A0E0B1E02C9130E011968C91119780
:107F100090E0982F8827822B932B1296FA010C0160
:107F200087BEE89511244E5F5F4FF1E0A038BF0790
:107F300051F7F601A7BEE89507B600FCFDCF97BE46
:107F4000E89526C08437B1F42ED02DD0F82E2BD052
:107F50003CD0F601EF2C8F010F5F1F4F84911BD097
:107F6000EA94F801C1F70894C11CD11CFA94CF0C13
:107F7000D11C0EC0853739F428D08EE10CD085E9AC
:107F80000AD08FE07ACF813511F488E018D01DD067
:107F900080E101D065CF982F8091C00085FFFCCF94
:107FA0009093C60008958091C00087FFFCCF809118
:107FB000C00084FD01C0A8958091C6000895E0E648
:107FC000F0E098E1908380830895EDDF803219F02E
:107FD00088E0F5DFFFCF84E1DECF1F93182FE3DFCA
:107FE0001150E9F7F2DF1F91089580E0E8DFEE27F6
:047FF000FF270994CA
:027FFE00040479
:00000001FF
