:100000000C9434000C9440000C943E000C943E0080
:100010000C943E000C943E000C943E000C943E0068
:100020000C943E000C943E000C943E000C943E0058
:100030000C943E000C943E000C943E000C943E0048
:100040000C943E000C943E000C943E000C943E0038
:100050000C943E000C943E000C943E000C943E0028
:100060000C943E000C943E0011241FBECFEFD8E04C
:10007000DEBFCDBF0E945B000C9473000C940000A7
:100080001F920F920FB60F9211242F938F939F936D
:100090005C9A2FEF83ED90E3215080409040E1F790
:1000A00000C000005C989F918F912F910F900FBE20
:1000B0000F901F90189580E38AB984E08BB988E08F
:1000C0008093690081E08DBB789490E28BB18927A1
:1000D0008BB92FEF39E688E1215030408040E1F7BD
:0A00E00000C00000F3CFF894FFCF3A
:00000001FF
