:100000000C9434000C943E000C943E000C943E0082
:100010000C943E000C943E000C943E000C943E0068
:100020000C943E000C943E000C943E000C943E0058
:100030000C943E000C943E000C943E000C943E0048
:100040000C943E000C943E000C943E000C943E0038
:100050000C943E000C943E000C943E000C943E0028
:100060000C943E000C943E0011241FBECFEFD8E04C
:10007000DEBFCDBF0E9440000C9464000C940000D1
:100080008EE08AB992E098B98AB18E608AB990936D
:10009000680083E080936C00789496B186B190FFFD
:1000A00002C0539AFACF81FDF8CF8AB1857F8AB911
:1000B000529A2FEF8FE097E2215080409040E1F775
:0C00C00000C000005298E9CFF894FFCF78
:00000001FF
