:020000040000FA
:100000000C9435000C945D000C945D000C945D0024
:100010000C9494020C945D000C945D000C940F02FF
:100020000C945D000C945D000C945D000C945D00DC
:100030000C945D000C945D000C945D000C945D00CC
:100040000C945D000C945D000C94DD010C94B701E0
:100050000C945D000C945D000C945D000C945D00AC
:100060000C945D000C945D00D50211241FBECFEFEF
:10007000D8E0DEBFCDBF11E0A0E0B1E0E4E9F7E0F9
:1000800002C005900D92A636B107D9F722E0A6E688
:10009000B1E001C01D92AC30B207E1F710E0C5E35A
:1000A000D0E004C02197FE010E94C203C433D107EF
:1000B000C9F70E9408030C94C8030C940000AF9287
:1000C000BF92CF92DF92EF92FF920F931F93CF9345
:1000D000DF936C017B018B01040F151FEB015E01A7
:1000E000AE18BF08C017D10759F06991D601ED913C
:1000F000FC910190F081E02DC6010995892B79F7DB
:10010000C501DF91CF911F910F91FF90EF90DF908C
:10011000CF90BF90AF900895FC01538D448D252F53
:1001200030E0842F90E0821B930B541710F0CF9691
:10013000089501970895FC01918D828D981761F0C3
:10014000A28DAE0FBF2FB11D5D968C91928D9F5FDA
:100150009F73928F90E008958FEF9FEF0895FC01B9
:10016000918D828D981731F0828DE80FF11D858D6C
:1001700090E008958FEF9FEF0895FC01918D228DFF
:10018000892F90E0805C9F4F821B91098F73992784
:100190000895FC01A48DA80FB92FB11DA35ABF4F1C
:1001A0002C91848D90E001968F739927848FA68976
:1001B000B7892C93A089B1898C91837080648C93CA
:1001C000938D848D981306C00288F389E02D808179
:1001D0008F7D80830895EF92FF920F931F93CF93AB
:1001E000DF93EC0181E0888F9B8D8C8D98131AC072
:1001F000E889F989808185FF15C09FB7F894EE8959
:10020000FF896083E889F9898081837080648083B5
:100210009FBF81E090E0DF91CF911F910F91FF9000
:10022000EF900895F62E0B8D10E00F5F1F4F0F73A8
:100230001127E02E8C8D8E110CC00FB607FCFACF63
:10024000E889F989808185FFF5CFCE010E94C90038
:10025000F1CFEB8DEC0FFD2FF11DE35AFF4FF08234
:100260009FB7F8940B8FEA89FB8980818062CFCF9A
:10027000CF93DF93EC01888D8823B9F0AA89BB89DD
:10028000E889F9898C9185FD03C0808186FD0DC0C8
:100290000FB607FCF7CF8C9185FFF2CF808185FFE9
:1002A000EDCFCE010E94C900E9CFDF91CF91089533
:1002B000FC0101900020E9F73197AF01481B590B71
:1002C000BC018DE691E00C945F008F929F92AF92FB
:1002D000BF920F931F93CF93DF93CDB7DEB7A19754
:1002E0000FB6F894DEBF0FBECDBF19A2423008F49E
:1002F0004AE08E010F5D1F4F842E912CB12CA12C52
:10030000A50194010E948C03E62FB901CA01EA30CD
:10031000F4F4E05DD801EE938D01232B242B252BE3
:1003200079F790E080E0109719F0CD010E94580114
:10033000A1960FB6F894DEBF0FBECDBFDF91CF916F
:100340001F910F91BF90AF909F908F900895E95C9F
:10035000E1CFCF93DF930E945801EC0182E191E05D
:100360000E9458018C0F9D1FDF91CF9108951F921D
:100370000F920FB60F9211242F933F934F935F93D9
:100380006F937F938F939F93AF93BF93EF93FF935D
:100390008DE691E00E94C900FF91EF91BF91AF916E
:1003A0009F918F917F916F915F914F913F912F918D
:1003B0000F900FBE0F901F9018951F920F920FB6BF
:1003C0000F9211242F938F939F93EF93FF93E091BC
:1003D0007D01F0917E018081E0918301F0918401A3
:1003E00082FD1BC09081809186018F5F8F73209169
:1003F0008701821741F0E0918601F0E0E359FE4F5A
:10040000958F80938601FF91EF919F918F912F910E
:100410000F900FBE0F901F9018958081F4CF1F9200
:100420000F920FB60F921124CF92DF92EF92FF92AC
:100430002F933F934F935F936F937F938F939F93EC
:10044000AF93BF93EF93FF9380916B0190916C01F9
:10045000019690936C0180936B012091690130911A
:100460006A012130310509F04AC0803A9F4009F005
:1004700046C085E191E00E94A90180910A02909115
:100480000B02909368018093670181E291E00E94E2
:10049000A90180916601811132C08091690190911A
:1004A0006A01181619065CF510926C0110926B0126
:1004B00081E0809366018FE291E00E945801C09034
:1004C0006901D0906A010D2C000CEE08FF084AE08B
:1004D000C701B601F7FE0DC06DE28DE691E00E9406
:1004E000EB0066277727CB016C197D098E099F09E0
:1004F0004AE00E94650182E191E00E945801FF916B
:10050000EF91BF91AF919F918F917F916F915F918B
:100510004F913F912F91FF90EF90DF90CF900F90F0
:100520000FBE0F901F9018951F920F920FB60F924B
:1005300011242F933F934F935F936F937F938F93E8
:100540009F93AF93BF93EF93FF9386B1319B27C0E7
:1005500080FF25C08091690190916A01892B71F417
:1005600081E090E090936A018093690110926C01A0
:1005700010926B0185E491E00E94A901FF91EF9137
:10058000BF91AF919F918F917F916F915F914F91AB
:100590003F912F910F900FBE0F901F90189517BC91
:1005A00010926A0110926901E9CFEDE6F1E0138241
:1005B000128288EE93E0A0E0B0E084839583A68366
:1005C000B78384E091E09183808385EC90E0958708
:1005D000848784EC90E09787868780EC90E0918B0D
:1005E000808B81EC90E0938B828B82EC90E0958BFA
:1005F000848B86EC90E0978B868B118E128E138EF7
:10060000148E86E690E090930B0280930A02089580
:10061000E0917D01F0917E0182E08083E09179019B
:10062000F0917A011082E0917B01F0917C0190E1E0
:10063000908310928501E0918101F091820196E012
:100640009083E0917F01F09180019081906190838F
:10065000E0917F01F0918001908198609083E0911A
:100660007F01F0918001908190689083E0917F01FB
:10067000F091800190819F7D9083569A5E9894B509
:10068000936894BD95B5956095BD17BC80936E0039
:100690008093B00093E09093B10099EF9093B300F2
:1006A000809370008093680080916C0083608093D9
:1006B0006C007894C4EFD1E08091670187BD809190
:1006C0006B0190916C01BE010E947803892BA1F708
:1006D00086E591E00E94580167B570E090E080E007
:1006E0004AE00E94650182E191E00E945801E4CF56
:1006F00097FB072E16F4009407D077FD09D00E94CF
:10070000AE0307FC05D03EF4909581959F4F089568
:10071000709561957F4F0895A1E21A2EAA1BBB1B0D
:10072000FD010DC0AA1FBB1FEE1FFF1FA217B307BD
:10073000E407F50720F0A21BB30BE40BF50B661FD3
:10074000771F881F991F1A9469F760957095809597
:1007500090959B01AC01BD01CF010895AA1BBB1B65
:1007600051E107C0AA1FBB1FA617B70710F0A61BB1
:10077000B70B881F991F5A95A9F780959095BC01D2
:10078000CD010895EE0FFF1F0590F491E02D09941F
:10079000F894FFCF00000000EB005F008C003801F0
:1007A000BD009B00AF000D0A00456E74726F75208E
:1007B0006171756900456E74726F75207475726E23
:1007C0004F6E0043757272656E74206372696220A9
:1007D000656E74726F753A2000456E74726F752085
:1007E0006E6F20696E6963696F0043757272656E22
:0A07F00074204F435230413A2000BC
:107E0000112484B714BE81FFF0D085E080938100F7
:107E100082E08093C00088E18093C10086E0809377
:107E2000C20080E18093C4008EE0C9D0259A86E02C
:107E300020E33CEF91E0309385002093840096BBD3
:107E4000B09BFECF1D9AA8958150A9F7CC24DD24C4
:107E500088248394B5E0AB2EA1E19A2EF3E0BF2EE7
:107E6000A2D0813461F49FD0082FAFD0023811F036
:107E7000013811F484E001C083E08DD089C08234E0
:107E800011F484E103C0853419F485E0A6D080C0E4
:107E9000853579F488D0E82EFF2485D0082F10E0AE
:107EA000102F00270E291F29000F111F8ED06801E7
:107EB0006FC0863521F484E090D080E0DECF843638
:107EC00009F040C070D06FD0082F6DD080E0C81688
:107ED00080E7D80618F4F601B7BEE895C0E0D1E017
:107EE00062D089930C17E1F7F0E0CF16F0E7DF06D8
:107EF00018F0F601B7BEE89568D007B600FCFDCFD4
:107F0000A601A0E0B1E02C9130E011968C91119780
:107F100090E0982F8827822B932B1296FA010C0160
:107F200087BEE89511244E5F5F4FF1E0A038BF0790
:107F300051F7F601A7BEE89507B600FCFDCF97BE46
:107F4000E89526C08437B1F42ED02DD0F82E2BD052
:107F50003CD0F601EF2C8F010F5F1F4F84911BD097
:107F6000EA94F801C1F70894C11CD11CFA94CF0C13
:107F7000D11C0EC0853739F428D08EE10CD085E9AC
:107F80000AD08FE07ACF813511F488E018D01DD067
:107F900080E101D065CF982F8091C00085FFFCCF94
:107FA0009093C60008958091C00087FFFCCF809118
:107FB000C00084FD01C0A8958091C6000895E0E648
:107FC000F0E098E1908380830895EDDF803219F02E
:107FD00088E0F5DFFFCF84E1DECF1F93182FE3DFCA
:107FE0001150E9F7F2DF1F91089580E0E8DFEE27F6
:047FF000FF270994CA
:027FFE00040479
:00000001FF
