:020000040000FA
:100000000C9435000C945D000C945D000C945D0024
:100010000C94E2020C945D000C945D000C945D0065
:100020000C945D000C945D000C945D000C945D00DC
:100030000C945D000C945D000C9450020C945D00D7
:100040000C945D000C945D000C941E020C94F8015D
:100050000C945D000C945D000C945D000C945D00AC
:100060000C945D000C945D00360311241FBECFEF8D
:10007000D8E0DEBFCDBF11E0A0E0B1E0E2E4F8E0FF
:1000800002C005900D92AC37B107D9F722E0ACE77A
:10009000B1E001C01D92A832B207E1F710E0C5E35C
:1000A000D0E004C02197FE010E941904C433D10797
:1000B000C9F70E9481030C941F040C940000AF92B6
:1000C000BF92CF92DF92EF92FF920F931F93CF9345
:1000D000DF936C017B018B01040F151FEB015E01A7
:1000E000AE18BF08C017D10759F06991D601ED913C
:1000F000FC910190F081E02DC6010995892B79F7DB
:10010000C501DF91CF911F910F91FF90EF90DF908C
:10011000CF90BF90AF900895FC01538D448D252F53
:1001200030E0842F90E0821B930B541710F0CF9691
:10013000089501970895FC01918D828D981761F0C3
:10014000A28DAE0FBF2FB11D5D968C91928D9F5FDA
:100150009F73928F90E008958FEF9FEF0895FC01B9
:10016000918D828D981731F0828DE80FF11D858D6C
:1001700090E008958FEF9FEF0895FC01918D228DFF
:10018000892F90E0805C9F4F821B91098F73992784
:100190000895FC01A48DA80FB92FB11DA35ABF4F1C
:1001A0002C91848D90E001968F739927848FA68976
:1001B000B7892C93A089B1898C91837080648C93CA
:1001C000938D848D981306C00288F389E02D808179
:1001D0008F7D80830895EF92FF920F931F93CF93AB
:1001E000DF93EC0181E0888F9B8D8C8D98131AC072
:1001F000E889F989808185FF15C09FB7F894EE8959
:10020000FF896083E889F9898081837080648083B5
:100210009FBF81E090E0DF91CF911F910F91FF9000
:10022000EF900895F62E0B8D10E00F5F1F4F0F73A8
:100230001127E02E8C8D8E110CC00FB607FCFACF63
:10024000E889F989808185FFF5CFCE010E94C90038
:10025000F1CFEB8DEC0FFD2FF11DE35AFF4FF08234
:100260009FB7F8940B8FEA89FB8980818062CFCF9A
:10027000CF93DF93EC01888D8823B9F0AA89BB89DD
:10028000E889F9898C9185FD03C0808186FD0DC0C8
:100290000FB607FCF7CF8C9185FFF2CF808185FFE9
:1002A000EDCFCE010E94C900E9CFDF91CF91089533
:1002B000FC0101900020E9F73197AF01481B590B71
:1002C000BC0181E891E00C945F00CF93DF930E9422
:1002D0005801EC0182E191E00E9458018C0F9D1FB2
:1002E000DF91CF9108958F929F92AF92BF92CF925C
:1002F000DF92EF92FF920F931F93CF93DF93CDB7CF
:10030000DEB7A1970FB6F894DEBF0FBECDBF6C016C
:10031000990FEE08FF08F7FE47C06DE281E891E013
:100320000E94EB008C0122273327A9012C193D09DB
:100330004E095F0919A2CE0181967C019AE0892EAF
:10034000912CA12CB12CCA01B901A50194010E94E4
:10035000E303605DF70162937F01211531054105DB
:10036000510589F790E080E0309719F0CF010E94A5
:100370005801080F191F82E191E00E945801800F77
:10038000911FA1960FB6F894DEBF0FBECDBFDF91CF
:10039000CF911F910F91FF90EF90DF90CF90BF9082
:1003A000AF909F908F900895A701960119A28E019A
:1003B0000F5D1F4F8AE0C82ED12CE12CF12CCA0111
:1003C000B901A70196010E94E303605DF801629301
:1003D0008F01211531054105510589F7309729F025
:1003E000CF010E9458018C01C6CF10E000E0C3CFBE
:1003F0001F920F920FB60F9211242F933F934F939A
:100400005F936F937F938F939F93AF93BF93EF937C
:10041000FF9381E891E00E94C900FF91EF91BF91A5
:10042000AF919F918F917F916F915F914F913F918C
:100430002F910F900FBE0F901F9018951F920F9243
:100440000FB60F9211242F938F939F93EF93FF93E7
:10045000E0919101F09192018081E0919701F091FA
:10046000980182FD1BC0908180919A018F5F8F73EC
:1004700020919B01821741F0E0919A01F0E0EF5743
:10048000FE4F958F80939A01FF91EF919F918F91ED
:100490002F910F900FBE0F901F9018958081F4CF71
:1004A0001F920F920FB60F9211242F933F934F93E9
:1004B0005F936F937F938F939F93AF93BF93CF93EC
:1004C000EF93FF9380917F0190918001019690932B
:1004D000800180937F0120917D0130917E01213048
:1004E000310529F4C1E0803A2FE0920709F0C0E01D
:1004F00060EA7FE00E94CF03892B51F485E191E00F
:100500000E94580180917F01909180010E947301A7
:10051000CC2389F181E291E00E9465018DE291E0B6
:100520000E94650180917C01811118C080917D013C
:1005300090917E01181619068CF410928001109289
:100540007F0181E080937C018BE391E00E94580160
:1005500080917D0190917E010E94730180917D01C7
:1005600090917E018330910539F1BCF48130910581
:10057000E1F00297F1F0FF91EF91CF91BF91AF9130
:100580009F918F917F916F915F914F913F912F91AB
:100590000F900FBE0F901F9018958430910579F041
:1005A000059749F780911E0202C08091260287BDFF
:1005B000E2CF80912402FBCF80912202F8CF80917C
:1005C0002002F5CF1F920F920FB60F9211242F9396
:1005D0003F934F935F936F937F938F939F93AF93CB
:1005E000BF93EF93FF9386B1319B3BC080FF39C02F
:1005F00080917D0190917E01892B71F481E090E0E2
:1006000090937E0180937D011092800110927F0172
:1006100081E591E00E94650182E691E00E94580127
:1006200080917D0190917E010E94730181E791E0AC
:100630000E94580180917F01909180010E94730176
:10064000FF91EF91BF91AF919F918F917F916F91AA
:100650005F914F913F912F910F900FBE0F901F9080
:10066000189510927E0110927D01EACFE1E8F1E049
:100670001382128288EE93E0A0E0B0E08483958339
:10068000A683B78384E091E09183808385EC90E03A
:100690009587848784EC90E09787868780EC90E04C
:1006A000918B808B81EC90E0938B828B82EC90E03D
:1006B000958B848B86EC90E0978B868B118E128EB7
:1006C000138E148E86E690E0909327028093260284
:1006D0008CEC90E0909325028093240289E590E0D1
:1006E000909323028093220289E190E0909321026B
:1006F000809320028FEB90E090931F0280931E0264
:100700000895E0919101F091920182E08083E0915F
:100710008D01F0918E011082E0918F01F091900196
:1007200090E1908310929901E0919501F0919601EA
:1007300096E09083E0919301F09194019081906113
:100740009083E0919301F09194019081986090835F
:10075000E0919301F0919401908190689083E091F1
:100760009301F091940190819F7D9083569A93E834
:100770009093B00095E09093B1008093700084BD99
:1007800093E095BD99EF97BD80936E0080936800CC
:1007900080916C00836080936C007894FFCF97FB0E
:1007A000072E16F4009407D077FD09D00E940504A7
:1007B00007FC05D03EF4909581959F4F0895709564
:1007C00061957F4F0895A1E21A2EAA1BBB1BFD0164
:1007D0000DC0AA1FBB1FEE1FFF1FA217B307E40720
:1007E000F50720F0A21BB30BE40BF50B661F771F78
:1007F000881F991F1A9469F7609570958095909558
:100800009B01AC01BD01CF010895AA1BBB1B51E1A7
:1008100007C0AA1FBB1FA617B70710F0A61BB70B70
:10082000881F991F5A95A9F780959095BC01CD0115
:100830000895EE0FFF1F0590F491E02D0994F894B0
:10084000FFCF00000000EB005F008C003801BD000E
:100850009B00AF000D0A00436F756E746572202C0B
:100860003A2000456E74726F75206171756900459C
:100870006E74726F75207475726E4F6E0043757270
:1008800072656E74206372696220656E74726F7532
:100890003A2000456E74726F75206E6F20696E6924
:1008A00063696F0043757272656E7420637269626A
:0E08B0003A2000436F756E7465723A200000A6
:107E0000112484B714BE81FFF0D085E080938100F7
:107E100082E08093C00088E18093C10086E0809377
:107E2000C20080E18093C4008EE0C9D0259A86E02C
:107E300020E33CEF91E0309385002093840096BBD3
:107E4000B09BFECF1D9AA8958150A9F7CC24DD24C4
:107E500088248394B5E0AB2EA1E19A2EF3E0BF2EE7
:107E6000A2D0813461F49FD0082FAFD0023811F036
:107E7000013811F484E001C083E08DD089C08234E0
:107E800011F484E103C0853419F485E0A6D080C0E4
:107E9000853579F488D0E82EFF2485D0082F10E0AE
:107EA000102F00270E291F29000F111F8ED06801E7
:107EB0006FC0863521F484E090D080E0DECF843638
:107EC00009F040C070D06FD0082F6DD080E0C81688
:107ED00080E7D80618F4F601B7BEE895C0E0D1E017
:107EE00062D089930C17E1F7F0E0CF16F0E7DF06D8
:107EF00018F0F601B7BEE89568D007B600FCFDCFD4
:107F0000A601A0E0B1E02C9130E011968C91119780
:107F100090E0982F8827822B932B1296FA010C0160
:107F200087BEE89511244E5F5F4FF1E0A038BF0790
:107F300051F7F601A7BEE89507B600FCFDCF97BE46
:107F4000E89526C08437B1F42ED02DD0F82E2BD052
:107F50003CD0F601EF2C8F010F5F1F4F84911BD097
:107F6000EA94F801C1F70894C11CD11CFA94CF0C13
:107F7000D11C0EC0853739F428D08EE10CD085E9AC
:107F80000AD08FE07ACF813511F488E018D01DD067
:107F900080E101D065CF982F8091C00085FFFCCF94
:107FA0009093C60008958091C00087FFFCCF809118
:107FB000C00084FD01C0A8958091C6000895E0E648
:107FC000F0E098E1908380830895EDDF803219F02E
:107FD00088E0F5DFFFCF84E1DECF1F93182FE3DFCA
:107FE0001150E9F7F2DF1F91089580E0E8DFEE27F6
:047FF000FF270994CA
:027FFE00040479
:00000001FF
