:100000000C9434000C9446000C9446000C946E0042
:100010000C9446000C9446000C9446000C94460048
:100020000C9446000C9446000C9446000C94460038
:100030000C9446000C9446000C9446000C94460028
:100040000C9446000C9446000C9446000C94460018
:100050000C9446000C9446000C9446000C94460008
:100060000C9446000C94460011241FBECFEFD8E03C
:10007000DEBFCDBF21E0A0E0B1E001C01D92A23003
:10008000B207E1F70E94E5000C94F0000C94000028
:1000900020910001309101012639310559F48BB1CD
:1000A0008F798BB986E490E09093010180930001F1
:1000B0005F9A08952436310551F486E490E09093D8
:1000C0000101809300018BB18F798BB9F1CF283773
:1000D000310599F39BB1892B8BB908951F920F922B
:1000E0000FB60F9211242F933F934F935F936F930B
:1000F0007F938F939F93AF93BF93CF93DF93EF93B0
:10010000FF9323B1D3B1D071C3B1C8708091000106
:100110009091010125FD43C04E969093010180937B
:10012000000180E290E00E944800809100019091DF
:100130000101D1113BC0C29690930101809300014F
:1001400080E490E00E9448008091000190910101BC
:10015000C11133C08A5B9F4F9093010180930001CE
:1001600080E890E00E944800809100019091010198
:10017000892B11F48BB11BB8FF91EF91DF91CF91D7
:10018000BF91AF919F918F917F916F915F914F91AF
:100190003F912F910F900FBE0F901F9018954E9783
:1001A00090930101809300015D98BFCFC297909317
:1001B0000101809300015C98C7CF86549109909308
:1001C0000101809300015B98CFCF88E385B990EE61
:1001D0009AB991E09093680080936B007894FFCF78
:0401E000F894FFCFC1
:00000001FF
