:020000040000FA
:100000000C9434000C943E000C943E000C943E0082
:100010000C943E000C943E000C943E000C943E0068
:100020000C943E000C943E000C943E000C943E0058
:100030000C943E000C943E000C943E000C943E0048
:100040000C943E000C943E000C943E000C943E0038
:100050000C943E000C943E000C943E000C943E0028
:100060000C943E000C943E0011241FBECFEFD8E04C
:10007000DEBFCDBF0E9467000C945C010C940000B1
:10008000CF93DF93CDB7DEB78BB19F81892B8BB92F
:10009000DF91CF910895CF93DF93CDB7DEB7FE0107
:1000A00035964191519130E020E090E080E06191FF
:1000B0007191860F971F2F5F3F4F42175307B9F774
:1000C0009BB1809589238BB9DF91CF9108958FE003
:1000D0008AB982E088B91F9298E09F931F928F930C
:1000E0001F9281E08F931F9284E08F931F928F93D2
:1000F0000E944B008DB79EB70A960FB6F8949EBF2C
:100100000FBE8DBFD0E088E0F82E02E0C1E014E021
:1001100056B146B133B123B183B193B150FF0CC096
:100120001F92CF931F92CF930E9440000F900F9089
:100130000F900F90D1E0ECCF41FD16C01F92FF92BF
:100140001F920F931F92CF931F921F931F921F9383
:100150000E944B008DB79EB70A960FB6F8949EBFCB
:100160000FBE8DBFD0E0D4CF22708470987030FF66
:1001700021C0DD2309F496C01F92CF931F92CF9325
:100180000E944B009FEF2BE782E991502040804076
:10019000E1F700C000001F921F931F92CF930E94AF
:1001A00040008DB79EB708960FB6F8949EBF0FBE5D
:1001B0008DBFAECF2223C1F0DD2309F475C01F929D
:1001C0001F931F92CF930E944B001F920F931F9279
:1001D000CF930E9440008DB79EB708960FB6F89453
:1001E0009EBF0FBE8DBF94CF882309F440C0DD238E
:1001F00009F45CC01F920F931F92CF930E944B0093
:100200009FEF2BE782E9915020408040E1F700C04A
:1002100000001F920F931F92CF930E9440008DB752
:100220009EB708960FB6F8949EBF0FBE8DBF1A9B5F
:100230006FCF1F92FF921F92CF930E9440009FEFBB
:1002400029E688E1915020408040E1F700C000009D
:100250001F92FF921F92CF930E944B008DB79EB7C3
:1002600008960FB6F8949EBF0FBE8DBFE0CF9923BE
:1002700009F44ECFDD2309F44BCF1F92FF921F925A
:100280000F931F92CF931F921F931F921F930E9451
:100290004B008DB79EB70A960FB6F8949EBF0FBE5F
:1002A0008DBF36CF222329F0882309F391115ACF2D
:0C02B0002FCF8111FBCF2CCFF894FFCF93
:107E0000112484B714BE81FFF0D085E080938100F7
:107E100082E08093C00088E18093C10086E0809377
:107E2000C20080E18093C4008EE0C9D0259A86E02C
:107E300020E33CEF91E0309385002093840096BBD3
:107E4000B09BFECF1D9AA8958150A9F7CC24DD24C4
:107E500088248394B5E0AB2EA1E19A2EF3E0BF2EE7
:107E6000A2D0813461F49FD0082FAFD0023811F036
:107E7000013811F484E001C083E08DD089C08234E0
:107E800011F484E103C0853419F485E0A6D080C0E4
:107E9000853579F488D0E82EFF2485D0082F10E0AE
:107EA000102F00270E291F29000F111F8ED06801E7
:107EB0006FC0863521F484E090D080E0DECF843638
:107EC00009F040C070D06FD0082F6DD080E0C81688
:107ED00080E7D80618F4F601B7BEE895C0E0D1E017
:107EE00062D089930C17E1F7F0E0CF16F0E7DF06D8
:107EF00018F0F601B7BEE89568D007B600FCFDCFD4
:107F0000A601A0E0B1E02C9130E011968C91119780
:107F100090E0982F8827822B932B1296FA010C0160
:107F200087BEE89511244E5F5F4FF1E0A038BF0790
:107F300051F7F601A7BEE89507B600FCFDCF97BE46
:107F4000E89526C08437B1F42ED02DD0F82E2BD052
:107F50003CD0F601EF2C8F010F5F1F4F84911BD097
:107F6000EA94F801C1F70894C11CD11CFA94CF0C13
:107F7000D11C0EC0853739F428D08EE10CD085E9AC
:107F80000AD08FE07ACF813511F488E018D01DD067
:107F900080E101D065CF982F8091C00085FFFCCF94
:107FA0009093C60008958091C00087FFFCCF809118
:107FB000C00084FD01C0A8958091C6000895E0E648
:107FC000F0E098E1908380830895EDDF803219F02E
:107FD00088E0F5DFFFCF84E1DECF1F93182FE3DFCA
:107FE0001150E9F7F2DF1F91089580E0E8DFEE27F6
:047FF000FF270994CA
:027FFE00040479
:00000001FF
