:100000000C9434000C943E000C943E000C943E0082
:100010000C943E000C943E000C943E000C943E0068
:100020000C943E000C943E000C943E000C943E0058
:100030000C943E000C943E000C943E000C943E0048
:100040000C943E000C943E000C943E000C943E0038
:100050000C943E000C943E000C943E000C943E0028
:100060000C943E000C943E0011241FBECFEFD8E04C
:10007000DEBFCDBF0E9467000C945C010C940000B1
:10008000CF93DF93CDB7DEB78BB19F81892B8BB92F
:10009000DF91CF910895CF93DF93CDB7DEB7FE0107
:1000A00035964191519130E020E090E080E06191FF
:1000B0007191860F971F2F5F3F4F42175307B9F774
:1000C0009BB1809589238BB9DF91CF9108958FE003
:1000D0008AB982E088B91F9298E09F931F928F930C
:1000E0001F9281E08F931F9284E08F931F928F93D2
:1000F0000E944B008DB79EB70A960FB6F8949EBF2C
:100100000FBE8DBFD0E088E0F82E02E0C1E014E021
:1001100056B146B133B123B183B193B150FF0CC096
:100120001F92CF931F92CF930E9440000F900F9089
:100130000F900F90D1E0ECCF41FD16C01F92FF92BF
:100140001F920F931F92CF931F921F931F921F9383
:100150000E944B008DB79EB70A960FB6F8949EBFCB
:100160000FBE8DBFD0E0D4CF22708470987030FF66
:1001700021C0DD2309F496C01F92CF931F92CF9325
:100180000E944B009FEF2BE782E991502040804076
:10019000E1F700C000001F921F931F92CF930E94AF
:1001A00040008DB79EB708960FB6F8949EBF0FBE5D
:1001B0008DBFAECF2223C1F0DD2309F475C01F929D
:1001C0001F931F92CF930E944B001F920F931F9279
:1001D000CF930E9440008DB79EB708960FB6F89453
:1001E0009EBF0FBE8DBF94CF882309F440C0DD238E
:1001F00009F45CC01F920F931F92CF930E944B0093
:100200009FEF2BE782E9915020408040E1F700C04A
:1002100000001F920F931F92CF930E9440008DB752
:100220009EB708960FB6F8949EBF0FBE8DBF1A9B5F
:100230006FCF1F92FF921F92CF930E9440009FEFBB
:1002400029E688E1915020408040E1F700C000009D
:100250001F92FF921F92CF930E944B008DB79EB7C3
:1002600008960FB6F8949EBF0FBE8DBFE0CF9923BE
:1002700009F44ECFDD2309F44BCF1F92FF921F925A
:100280000F931F92CF931F921F931F921F930E9451
:100290004B008DB79EB70A960FB6F8949EBF0FBE5F
:1002A0008DBF36CF222329F0882309F391115ACF2D
:0C02B0002FCF8111FBCF2CCFF894FFCF93
:00000001FF
