:100000000C9434000C9446000C9446000C9446006A
:100010000C946F000C9446000C9446000C9446001F
:100020000C9446000C9446000C9446000C94460038
:100030000C9446000C9446000C9446000C94460028
:100040000C9446000C9446000C9446000C94460018
:100050000C9446000C9446000C9446000C94460008
:100060000C9446000C94460011241FBECFEFD8E03C
:10007000DEBFCDBF21E0A0E0B1E001C01D92A13004
:10008000B207E1F70E94AD000C94AB010C940000A4
:10009000CF93DF93CDB7DEB78BB19F81892B8BB91F
:1000A000DF91CF910895CF93DF93CDB7DEB7FE01F7
:1000B00035964191519130E020E090E080E06191EF
:1000C0007191860F971F2F5F3F4F42175307B9F764
:1000D0009BB1809589238BB9DF91CF9108951F92B1
:1000E0000F920FB60F9211242F933F934F935F936C
:1000F0006F937F938F939F93AF93BF93EF93FF93F0
:1001000031991AC01F9288E08F931F9282E08F93DB
:100110001F9281E08F931F9284E08F931F928F93A1
:100120000E945300109200018DB79EB70A960FB639
:10013000F8949EBF0FBE8DBFFF91EF91BF91AF911D
:100140009F918F917F916F915F914F913F912F91EF
:100150000F900FBE0F901F9018958FE08AB992E014
:1001600098B98091680082608093680080916C00EB
:10017000826080936C001F9288E08F931F929F9300
:100180001F9281E08F931F9284E08F931F928F9331
:100190000E94530078948DB79EB70A960FB6F894D4
:1001A0009EBF0FBE8DBF08E012E0C1E0D4E0FF2487
:1001B000F39456B146B133B123B193B183B150FF3B
:1001C0000DC01F92CF931F92CF930E944800F092D0
:1001D00000010F900F900F900F90EBCF41FD17C0D3
:1001E0001F920F931F921F931F92CF931F92DF9323
:1001F0001F92DF930E945300109200018DB79EB7AB
:100200000A960FB6F8949EBF0FBE8DBFD2CF30FFB7
:1002100022C0309100013323F1F01F92CF931F923F
:10022000CF930E9453009FEF2BE782E9915020402B
:100230008040E1F700C000001F92DF931F92CF9330
:100240000E9448008DB79EB708960FB6F8949EBFDF
:100250000FBE8DBFAECF21FF19C020910001222318
:10026000A9F01F92DF931F92CF930E9453001F9219
:100270001F931F92CF930E9448008DB79EB7089698
:100280000FB6F8949EBF0FBE8DBF93CF92FF47C0AD
:1002900080910001882309F48CCF1F921F931F9235
:1002A000CF930E9453009FEF2BE782E991502040AB
:1002B0008040E1F700C000001F921F931F92CF9370
:1002C0000E9448008DB79EB708960FB6F8949EBF5F
:1002D0000FBE8DBF1A9B6DCF80910001882309F45A
:1002E00068CF1F920F931F92CF930E9448009FEFF9
:1002F00029E688E1915020408040E1F700C00000ED
:100300001F920F931F92CF930E9453008DB79EB7F9
:1003100008960FB6F8949EBF0FBE8DBFDBCF83FF4C
:1003200048CF80910001882309F443CF1F920F9397
:100330001F921F931F92CF931F92DF931F92DF9301
:100340000E9453008DB79EB70A960FB6F8949EBFD1
:0A0350000FBE8DBF2ECFF894FFCF33
:00000001FF
