:100000000C9434000C943E000C943E000C94400080
:100010000C945D000C947A000C943E000C943E000D
:100020000C943E000C943E000C943E000C943E0058
:100030000C943E000C943E000C943E000C943E0048
:100040000C943E000C943E000C943E000C943E0038
:100050000C943E000C943E000C943E000C943E0028
:100060000C943E000C943E0011241FBECFEFD8E04C
:10007000DEBFCDBF0E9499000C94AC000C94000030
:100080001F920F920FB60F9211242F938F939F936D
:10009000329B0BC02C9A2FEF83ED90E321508040D0
:1000A0009040E1F700C000002C989F918F912F9114
:1000B0000F900FBE0F901F9018951F920F920FB6C2
:1000C0000F9211242F938F939F93349B0BC02C9AE4
:1000D0002FEF83ED90E3215080409040E1F700C086
:1000E00000002C989F918F912F910F900FBE0F9031
:1000F0001F9018951F920F920FB60F9211242F93F5
:100100008F939F934A9902C04E9B0BC02C9A2FEF5E
:1001100083ED90E3215080409040E1F700C0000063
:100120002C989F918F912F910F900FBE0F901F9041
:10013000189514B817B81AB880E184B92C9897E0CC
:100140009093680094E090936B0080936C0084E43B
:0C01500080936D007894FFCFF894FFCFEF
:00000001FF
