:020000040000FA
:100000000C9435000C94FE010C945D000C945D0082
:100010000C945D000C945D000C945D000C945D00EC
:100020000C945D000C945D000C945D000C945D00DC
:100030000C945D000C945D000C945D000C945D00CC
:100040000C945D000C945D000C94CC010C94A60102
:100050000C945D000C945D000C945D000C945D00AC
:100060000C945D000C945D00530211241FBECFEF71
:10007000D8E0DEBFCDBF11E0A0E0B1E0E6E6F6E0FB
:1000800002C005900D92A631B107D9F721E0A6E193
:10009000B1E001C01D92A53BB207E1F710E0C5E356
:1000A000D0E004C02197FE010E942B03C433D10786
:1000B000C9F70E9480020C9431030C940000AF92A7
:1000C000BF92CF92DF92EF92FF920F931F93CF9345
:1000D000DF936C017B018B01040F151FEB015E01A7
:1000E000AE18BF08C017D10759F06991D601ED913C
:1000F000FC910190F081E02DC6010995892B79F7DB
:10010000C501DF91CF911F910F91FF90EF90DF908C
:10011000CF90BF90AF900895FC01538D448D252F53
:1001200030E0842F90E0821B930B541710F0CF9691
:10013000089501970895FC01918D828D981761F0C3
:10014000A28DAE0FBF2FB11D5D968C91928D9F5FDA
:100150009F73928F90E008958FEF9FEF0895FC01B9
:10016000918D828D981731F0828DE80FF11D858D6C
:1001700090E008958FEF9FEF0895FC01918D228DFF
:10018000892F90E0805C9F4F821B91098F73992784
:100190000895FC01A48DA80FB92FB11DA35ABF4F1C
:1001A0002C91848D90E001968F739927848FA68976
:1001B000B7892C93A089B1898C91837080648C93CA
:1001C000938D848D981306C00288F389E02D808179
:1001D0008F7D80830895EF92FF920F931F93CF93AB
:1001E000DF93EC0181E0888F9B8D8C8D98131AC072
:1001F000E889F989808185FF15C09FB7F894EE8959
:10020000FF896083E889F9898081837080648083B5
:100210009FBF81E090E0DF91CF911F910F91FF9000
:10022000EF900895F62E0B8D10E00F5F1F4F0F73A8
:100230001127E02E8C8D8E110CC00FB607FCFACF63
:10024000E889F989808185FFF5CFCE010E94C90038
:10025000F1CFEB8DEC0FFD2FF11DE35AFF4FF08234
:100260009FB7F8940B8FEA89FB8980818062CFCF9A
:10027000CF93DF93EC01888D8823B9F0AA89BB89DD
:10028000E889F9898C9185FD03C0808186FD0DC0C8
:100290000FB607FCF7CF8C9185FFF2CF808185FFE9
:1002A000EDCFCE010E94C900E9CFDF91CF91089533
:1002B0008F929F92AF92BF920F931F93CF93DF9332
:1002C000CDB7DEB7A1970FB6F894DEBF0FBECDBF96
:1002D00019A2423008F44AE08E010F5D1F4F842EB0
:1002E000912CB12CA12CA50194010E94F502E62FBE
:1002F000B901CA01EA3044F5E05DD801EE938D0101
:10030000232B242B252B79F790E080E0109769F0C0
:10031000FD0101900020E9F73197AF014A1B5B0B0B
:10032000BD0188E191E00E945F00A1960FB6F894AC
:10033000DEBF0FBECDBFDF91CF911F910F91BF9058
:10034000AF909F908F900895E95CD7CF1F920F9246
:100350000FB60F9211242F933F934F935F936F9398
:100360007F938F939F93AF93BF93EF93FF9388E116
:1003700091E00E94C900FF91EF91BF91AF919F91D1
:100380008F917F916F915F914F913F912F910F903E
:100390000FBE0F901F9018951F920F920FB60F92DD
:1003A00011242F938F939F93EF93FF93E091280154
:1003B000F09129018081E0912E01F0912F0182FDC1
:1003C0001BC09081809131018F5F8F73209132012A
:1003D000821741F0E0913101F0E0E85EFE4F958F29
:1003E00080933101FF91EF919F918F912F910F9009
:1003F0000FBE0F901F9018958081F4CF1F920F921F
:100400000FB60F921124CF92DF92EF92FF922F93AB
:100410003F934F935F936F937F938F939F93AF938C
:10042000BF93EF93FF93C0901601D09017018AE01D
:10043000C80ED11CD0921701C09216010D2C000CD1
:10044000EE08FF084AE0C701B601F7FE0DC06DE2F5
:1004500088E191E00E94EB0066277727CB016C19B9
:100460007D098E099F094AE00E94580142E050E050
:1004700062E171E088E191E00E945F00FF91EF91FD
:10048000BF91AF919F918F917F916F915F914F91AC
:100490003F912F91FF90EF90DF90CF900F900FBE84
:1004A0000F901F901895E8E1F1E01382128288EE18
:1004B00093E0A0E0B0E084839583A683B78384E0D3
:1004C00091E09183808385EC90E09587848784EC2C
:1004D00090E09787868780EC90E0918B808B81EC11
:1004E00090E0938B828B82EC90E0958B848B86ECF2
:1004F00090E0978B868B118E128E138E148E08953A
:10050000E0912801F091290192E09083E09124018B
:10051000F09125011082E0912601F091270188EDEC
:10052000808310923001E0912C01F0912D0186E042
:100530008083E0912A01F0912B018081806180838A
:10054000E0912A01F0912B01808188608083E09105
:100550002A01F0912B01808180688083E0912A013B
:10056000F0912B0180818F7D808380E48AB983E0C4
:100570008093690021E02DBB84B5836884BD25BDCF
:1005800017BC90936E005E987894EFEF24E630E00D
:1005900080911601909117018536910524F01092F3
:1005A0001701109216014091160150911701E49F16
:1005B000C001E59F900D1124B9010E94E10267BDC1
:1005C000E7CF97FB072E16F4009407D077FD09D0EC
:1005D0000E94170307FC05D03EF4909581959F4F2C
:1005E0000895709561957F4F0895A1E21A2EAA1B78
:1005F000BB1BFD010DC0AA1FBB1FEE1FFF1FA217D3
:10060000B307E407F50720F0A21BB30BE40BF50BCF
:10061000661F771F881F991F1A9469F76095709558
:10062000809590959B01AC01BD01CF010895AA1B57
:10063000BB1B51E107C0AA1FBB1FA617B70710F0CD
:10064000A61BB70B881F991F5A95A9F780959095FF
:10065000BC01CD010895EE0FFF1F0590F491E02D30
:100660000994F894FFCF00000000EB005F008C00BD
:0C0670003801BD009B00AF000D0A000027
:107E0000112484B714BE81FFF0D085E080938100F7
:107E100082E08093C00088E18093C10086E0809377
:107E2000C20080E18093C4008EE0C9D0259A86E02C
:107E300020E33CEF91E0309385002093840096BBD3
:107E4000B09BFECF1D9AA8958150A9F7CC24DD24C4
:107E500088248394B5E0AB2EA1E19A2EF3E0BF2EE7
:107E6000A2D0813461F49FD0082FAFD0023811F036
:107E7000013811F484E001C083E08DD089C08234E0
:107E800011F484E103C0853419F485E0A6D080C0E4
:107E9000853579F488D0E82EFF2485D0082F10E0AE
:107EA000102F00270E291F29000F111F8ED06801E7
:107EB0006FC0863521F484E090D080E0DECF843638
:107EC00009F040C070D06FD0082F6DD080E0C81688
:107ED00080E7D80618F4F601B7BEE895C0E0D1E017
:107EE00062D089930C17E1F7F0E0CF16F0E7DF06D8
:107EF00018F0F601B7BEE89568D007B600FCFDCFD4
:107F0000A601A0E0B1E02C9130E011968C91119780
:107F100090E0982F8827822B932B1296FA010C0160
:107F200087BEE89511244E5F5F4FF1E0A038BF0790
:107F300051F7F601A7BEE89507B600FCFDCF97BE46
:107F4000E89526C08437B1F42ED02DD0F82E2BD052
:107F50003CD0F601EF2C8F010F5F1F4F84911BD097
:107F6000EA94F801C1F70894C11CD11CFA94CF0C13
:107F7000D11C0EC0853739F428D08EE10CD085E9AC
:107F80000AD08FE07ACF813511F488E018D01DD067
:107F900080E101D065CF982F8091C00085FFFCCF94
:107FA0009093C60008958091C00087FFFCCF809118
:107FB000C00084FD01C0A8958091C6000895E0E648
:107FC000F0E098E1908380830895EDDF803219F02E
:107FD00088E0F5DFFFCF84E1DECF1F93182FE3DFCA
:107FE0001150E9F7F2DF1F91089580E0E8DFEE27F6
:047FF000FF270994CA
:027FFE00040479
:00000001FF
