:100000000C9434000C943E000C943E000C943E0082
:100010000C943E000C943E000C943E000C943E0068
:100020000C943E000C943E000C943E000C943E0058
:100030000C943E000C943E000C943E000C943E0048
:100040000C943E000C943E000C943E000C943E0038
:100050000C943E000C943E000C943E000C943E0028
:100060000C943E000C943E0011241FBECFEFD8E04C
:10007000DEBFCDBF0E9440000C9454000C940000E1
:1000800083E087B988B18C7F88B929B199B189B1EA
:1000900022FF03C0409A4198F8CF94FDFCCF83FF24
:0C00A000F4CF419A4098F1CFF894FFCFC4
:00000001FF
