:100000000C9434000C944B000C9440000C943E0073
:100010000C943E000C943E000C943E000C943E0068
:100020000C943E000C943E000C943E000C943E0058
:100030000C943E000C943E000C943E000C943E0048
:100040000C943E000C943E000C943E000C943E0038
:100050000C943E000C943E000C943E000C943E0028
:100060000C943E000C943E0011241FBECFEFD8E04C
:10007000DEBFCDBF0E9456000C9461000C940000BE
:100080001F920F920FB60F921124299A0F900FBE54
:100090000F901F9018951F920F920FB60F92112478
:1000A00029980F900FBE0F901F90189582E084B989
:1000B0005A9A29988EE08093690083E08DBB7894EA
:0600C000FFCFF894FFCF12
:00000001FF
