:100000000C9434000C943E000C943E000C94400080
:100010000C9475000C947F000C943E000C943E00F0
:100020000C943E000C943E000C943E000C943E0058
:100030000C943E000C943E000C943E000C943E0048
:100040000C943E000C943E000C943E000C943E0038
:100050000C943E000C943E000C943E000C943E0028
:100060000C943E000C943E0011241FBECFEFD8E04C
:10007000DEBFCDBF0E949A000C94C0000C9400001B
:100080001F920F920FB60F9211242F933F938F93CD
:100090009F931A9919C09BB120E492279BB93FEF17
:1000A00089E698E1315080409040E1F700C00000BF
:1000B0008BB182278BB99F918F913F912F910F9098
:1000C0000FBE0F901F9018951899F5CF8BB18058DF
:1000D0008BB92FEF33ED80E3215030408040E1F7C2
:1000E00000C000008BB18058E5CF1F920F920FB671
:1000F0000F9211240F900FBE0F901F9018951F9212
:100100000F920FB60F9211242F938F939F93299ADA
:100110002FEF89E698E1215080409040E1F700C040
:10012000000029989F918F912F910F900FBE0F90F3
:100130001F90189585E085B980E18BB980EE8AB96A
:1001400082E084B980916800856080936800809126
:100150006D00806180936D0080916B00856080935D
:100160006B00789490E28BB189278BB92FEF34E341
:100170008CE0215030408040E1F700C00000F3CF18
:04018000F894FFCF21
:00000001FF
