:100000000C9434000C943E000C943E000C943E0082
:100010000C943E000C943E000C943E000C943E0068
:100020000C943E000C943E000C943E000C943E0058
:100030000C943E000C943E000C943E000C943E0048
:100040000C943E000C943E000C943E000C943E0038
:100050000C943E000C943E000C943E000C943E0028
:100060000C943E000C943E0011241FBECFEFD8E04C
:10007000DEBFCDBF0E9440000C9454000C940000E1
:1000800084E48AB95E985A9823B183B1827093B19F
:1000900023FF08C05A985E9A8111F5CF90FFF4CFE4
:0C00A0005A9AF2CF5E98F8CFF894FFCF88
:00000001FF
