:100000000C9435000C945D000C945D000C945D0024
:100010000C945D000C945D000C945D000C945D00EC
:100020000C945D000C945D000C945D000C945D00DC
:100030000C945D000C945D000C9401020C945D0026
:100040000C945D000C945D000C94CF010C94A901FC
:100050000C945D000C945D000C945D000C945D00AC
:100060000C945D000C945D008E0211241FBECFEF36
:10007000D8E0DEBFCDBF11E0A0E0B1E0E6E4F6E0FD
:1000800002C005900D92A831B107D9F721E0A8E18F
:10009000B1E001C01D92AD3BB207E1F710E0C5E34E
:1000A000D0E004C02197FE010E941B03C433D10796
:1000B000C9F70E94BB020C9421030C940000AF927C
:1000C000BF92CF92DF92EF92FF920F931F93CF9345
:1000D000DF936C017B018B01040F151FEB015E01A7
:1000E000AE18BF08C017D10759F06991D601ED913C
:1000F000FC910190F081E02DC6010995892B79F7DB
:10010000C501DF91CF911F910F91FF90EF90DF908C
:10011000CF90BF90AF900895FC01538D448D252F53
:1001200030E0842F90E0821B930B541710F0CF9691
:10013000089501970895FC01918D828D981761F0C3
:10014000A28DAE0FBF2FB11D5D968C91928D9F5FDA
:100150009F73928F90E008958FEF9FEF0895FC01B9
:10016000918D828D981731F0828DE80FF11D858D6C
:1001700090E008958FEF9FEF0895FC01918D228DFF
:10018000892F90E0805C9F4F821B91098F73992784
:100190000895FC01A48DA80FB92FB11DA35ABF4F1C
:1001A0002C91848D90E001968F739927848FA68976
:1001B000B7892C93A089B1898C91837080648C93CA
:1001C000938D848D981306C00288F389E02D808179
:1001D0008F7D80830895EF92FF920F931F93CF93AB
:1001E000DF93EC0181E0888F9B8D8C8D98131AC072
:1001F000E889F989808185FF15C09FB7F894EE8959
:10020000FF896083E889F9898081837080648083B5
:100210009FBF81E090E0DF91CF911F910F91FF9000
:10022000EF900895F62E0B8D10E00F5F1F4F0F73A8
:100230001127E02E8C8D8E110CC00FB607FCFACF63
:10024000E889F989808185FFF5CFCE010E94C90038
:10025000F1CFEB8DEC0FFD2FF11DE35AFF4FF08234
:100260009FB7F8940B8FEA89FB8980818062CFCF9A
:10027000CF93DF93EC01888D8823B9F0AA89BB89DD
:10028000E889F9898C9185FD03C0808186FD0DC0C8
:100290000FB607FCF7CF8C9185FFF2CF808185FFE9
:1002A000EDCFCE010E94C900E9CFDF91CF91089533
:1002B000FC0101900020E9F73197AF01481B590B71
:1002C000BC0180E291E00C945F008F929F92AF920C
:1002D000BF920F931F93CF93DF93CDB7DEB7A19754
:1002E0000FB6F894DEBF0FBECDBF19A2423008F49E
:1002F0004AE08E010F5D1F4F842E912CB12CA12C52
:10030000A50194010E94F902E62FB901CA01EA3061
:10031000F4F4E05DD801EE938D01232B242B252BE3
:1003200079F790E080E0109719F0CD010E94580114
:10033000A1960FB6F894DEBF0FBECDBFDF91CF916F
:100340001F910F91BF90AF909F908F900895E95C9F
:10035000E1CF1F920F920FB60F9211242F933F936C
:100360004F935F936F937F938F939F93AF93BF93BD
:10037000EF93FF9380E291E00E94C900FF91EF911B
:10038000BF91AF919F918F917F916F915F914F91AD
:100390003F912F910F900FBE0F901F9018951F92B5
:1003A0000F920FB60F9211242F938F939F93EF9379
:1003B000FF93E0913001F09131018081E0913601AD
:1003C000F091370182FD1BC09081809139018F5FD0
:1003D0008F7320913A01821741F0E0913901F0E0EA
:1003E000E05EFE4F958F80933901FF91EF919F91D1
:1003F0008F912F910F900FBE0F901F9018958081B5
:10040000F4CF1F920F920FB60F9211242F933F93A8
:100410004F935F936F937F938F939F93AF93BF930C
:10042000EF93FF9380911E0190911F010196883EEA
:1004300023E09207A9F090931F0180931E01FF9182
:10044000EF91BF91AF919F918F917F916F915F914C
:100450004F913F912F910F900FBE0F901F901895C5
:1004600010921F0110921E0180911C0190911D019C
:10047000019690931D0180931C01CC97A9F4809163
:1004800018019091190110921D0110921C012091E8
:100490001A0130911B012F5F3F4F2C33310561F161
:1004A00030931B0120931A0160911801709119017A
:1004B00090E080E04AE00E94650182E191E00E94C4
:1004C000580160911A0170911B0190E080E04AE0B0
:1004D0000E94650182E191E00E94580160911C0137
:1004E00070911D0190E080E04AE00E94650184E186
:1004F00091E00E945801A3CF10921B0110921A01A3
:1005000001968831910529F0909319018093180183
:10051000CBCF1092190110921801C6CFE0E2F1E0A2
:100520001382128288EE93E0A0E0B0E0848395838A
:10053000A683B78384E091E09183808385EC90E08B
:100540009587848784EC90E09787868780EC90E09D
:10055000918B808B81EC90E0938B828B82EC90E08E
:10056000958B848B86EC90E0978B868B118E128E08
:10057000138E148E0895E0913001F091310182E0E4
:100580008083E0912C01F0912D011082E0912E01E9
:10059000F0912F0190E1908310923801E0913401A5
:1005A000F091350196E09083E0913201F0913301B2
:1005B000908190619083E0913201F09133019081BC
:1005C00098609083E0913201F091330190819068BE
:1005D0009083E0913201F091330190819F7D90836F
:1005E00084BD93E095BD99EF97BD80936E0078949C
:1005F000FFCFA1E21A2EAA1BBB1BFD010DC0AA1F33
:10060000BB1FEE1FFF1FA217B307E407F50720F07B
:10061000A21BB30BE40BF50B661F771F881F991FF6
:100620001A9469F760957095809590959B01AC013F
:10063000BD01CF010895EE0FFF1F0590F491E02D4D
:060640000994F894FFCFBD
:1006460000000000EB005F008C003801BD009B003D
:08065600AF003A000D0A00009C
:00000001FF
