:100000000C9434000C9446000C9446000C9446006A
:100010000C9446000C9446000C9446000C94460048
:100020000C9446000C9446000C9446000C94460038
:100030000C9446000C9446000C9448000C94460026
:100040000C9446000C9446000C9446000C94460018
:100050000C9446000C9446000C9446000C94460008
:100060000C9446000C94460011241FBECFEFD8E03C
:10007000DEBFCDBF21E0A0E0B1E001C01D92A23003
:10008000B207E1F70E946D000C9479000C94000017
:100090001F920F920FB60F9211242F938F939F935D
:1000A00080910001909101010196853221E0920733
:1000B00060F490930101809300019F918F912F91A3
:1000C0000F900FBE0F901F90189510920101109283
:1000D00000018BB180588BB9F0CF80E88AB982E0FB
:1000E00084BD95E095BD98E097BD80936E007894AF
:0600F000FFCFF894FFCFE2
:00000001FF
